S01E0000547261666669635F636F6E74726F6C5F6C69676874732E73726563FD
S11300000C942A000C9447000C94EC000C944700C8
S11300100C9447000C9447000C9447000C94470040
S11300200C9447000C9447000C9447000C94470030
S11300300C9447000C9447000C9447000C94470020
S11300400C9447000C9447000C9447000C94470010
S11300500C94470011241FBECFE5D8E0DEBFCDBF0E
S113006010E0A0E6B0E0EEEBF8E002C005900D92DF
S1130070A838B107D9F720E0A8E8B0E001C01D9284
S1130080AA38B207E1F70E9432030C945D040C9481
S11300900000CF92DF92EF92FF926B017C0180E02F
S11300A090E00BC0EFE9FFE03197F1F700C00000EA
S11300B020916100222349F00196AC0160E070E0D8
S11300C04C155D056E057F0568F3FF90EF90DF909A
S11300D0CF900895CF93DF93C5E0D0E009C081E0CD
S11300E00E94030368EE73E080E090E00E94490000
S11300F02197A9F780E00E940303DF91CF9108952F
S1130100809160008B3009F18C3099F18A30C1F70D
S113011081E0809361000E94120368E873E180E04B
S113012090E00E94490080E00E94120380E00E9457
S1130130220380916100882321F08BE0809360008A
S1130140DFCF8AE080936000DBCF81E080936100A1
S11301500E946A0080E00E942203809160008B303C
S113016021F48CE080936000CBCF8AE08093600020
S1130170C7CF81E0809361000E94F40281E00E9475
S1130180220368E873E180E090E00E94490080E087
S11301900E94F40280E00E9422038AE080936000BF
S11301A0AFCF40E063E083E00E944703E091880022
S11301B0F091890081E08083E0918800F0918900CA
S11301C08183809188009091890027E0FC0122833B
S11301D023830E94290408951F920F920FB60F9251
S11301E011242F933F934F935F936F937F938F9338
S11301F09F93AF93BF93EF93FF932AB7E091880047
S1130200F091890081E090E0038002C0880F991F7B
S11302100A94E2F7822B8ABF809160008C3031F11E
S11302208AE08093600080E00E9412030E946A00CA
S113023065E082E00E94B10282E690E00E949E02A4
S113024081E00E94220381E00E94F4022FEF83E206
S113025094EF215080409040E1F700C0000080E01E
S11302600E94220380E00E94F4020FC08AE080937F
S1130270600081E00E9422032FEF83E294EF21507B
S113028080409040E1F700C0000065E082E00E94F9
S1130290B1028DE690E00E949E0210926100FF91EF
S11302A0EF91BF91AF919F918F917F916F915F91EA
S11302B04F913F912F910F900FBE0F901F90189563
S11302C0CF93C82F40E063E080E00E94B7038FE93A
S11302D09FE00197F1F700C00000C4FB442740F9F8
S11302E060E081E00E94B703C5FB442740F961E068
S11302F081E00E94B703C6FB442740F962E081E035
S11303000E94B7034C2F441F4427441F64E081E03C
S11303100E94B7038FE99FE00197F1F700C0000046
S113032041E062E080E00E94B7038FE99FE001971B
S1130330F1F700C0000040E062E080E00E94B703F3
S11303408FE99FE00197F1F700C000004C2F417046
S113035060E081E00E94B703C1FB442740F961E0FB
S113036081E00E94B703C2FB442740F962E081E0C8
S11303700E94B703C3FB442740F964E081E00E9474
S1130380B7038FE99FE00197F1F700C0000041E057
S113039062E080E00E94B7038FE99FE00197F1F7E4
S11303A000C0000040E062E080E00E94B7038FE1FB
S11303B09EE40197F1F700C00000CF91089541E059
S11303C063E080E00E94470341E062E080E00E9435
S11303D0470341E060E081E00E94470341E061E0BF
S11303E081E00E94470341E062E081E00E9447030C
S11303F041E064E081E00E9447038FE99FE00197B8
S1130400F1F700C0000088E20E9460018FE99FE0DC
S11304100197F1F700C0000081E00E9460018FE9BC
S11304209FE00197F1F700C000008CE00E9460019A
S11304308FE99FE00197F1F700C000000895CF9382
S1130440C82F41E063E080E00E94B7038FE99FE09A
S11304500197F1F700C00000C4FB442740F960E0B5
S113046081E00E94B703C5FB442740F961E081E0C5
S11304700E94B703C6FB442740F962E081E00E9472
S1130480B7034C2F441F4427441F64E081E00E94BB
S1130490B7038FE99FE00197F1F700C0000041E046
S11304A062E080E00E94B7038FE99FE00197F1F7D3
S11304B000C0000040E062E080E00E94B7038FE9E2
S11304C09FE00197F1F700C000004C2F417060E0FD
S11304D081E00E94B703C1FB442740F961E081E059
S11304E00E94B703C2FB442740F962E081E00E9406
S11304F0B703C3FB442740F964E081E00E94B703DB
S11305008FE99FE00197F1F700C0000041E062E04D
S113051080E00E94B7038FE99FE00197F1F700C0E4
S1130520000040E062E080E00E94B7038FE19EE4B7
S11305300197F1F700C00000CF9108950F931F9326
S1130540CF938C01C0E003C00E941F02CF5FF8016B
S1130550EC0FF11D80818111F7CFCF911F910F9185
S11305600895823051F018F4813061F004C0833072
S113057031F0843031F060E005C0605C03C06C5E33
S113058001C06C5A862F80680E946001089581E042
S11305900E946001089541E067E081E00E94470302
S11305A041E066E080E00E94470341E064E080E0CF
S11305B00E94470341E065E080E00E94470340E079
S11305C067E081E00E94B70340E066E080E00E94BB
S11305D0B70340E064E080E00E94B70340E065E0D8
S11305E080E00E94B7030895882339F0813051F4E4
S11305F041E067E00E94B703089540E067E081E0CE
S11306000E94B7030895882339F0813051F49BB3D5
S113061080E489278BBB089540E066E080E00E9477
S1130620B7030895882341F0813059F441E064E030
S113063080E00E94B703089540E064E080E00E94F7
S1130640B7030895882341F0813059F441E065E00F
S113065080E00E94B703089540E065E080E00E94D6
S1130660B70308950E94CB020E94DF010E94C702D3
S113067065E082E00E94B1028AE790E00E949E0257
S11306800E94D1000E94800080E090E008954130F3
S1130690A1F5813089F028F08230C9F0833011F15E
S11306A008952AB381E090E002C0880F991F6A95EB
S11306B0E2F7822B8ABB089527B381E090E002C061
S11306C0880F991F6A95E2F7822B87BB089524B39C
S11306D081E090E002C0880F991F6A95E2F7822BAF
S11306E084BB089521B381E090E002C0880F991F74
S11306F06A95E2F7822B81BB0895411137C081309E
S113070091F028F08230D9F0833029F108952AB38A
S113071081E090E002C0880F991F6A95E2F7809506
S113072082238ABB089527B381E090E002C0880F3A
S1130730991F6A95E2F78095822387BB089524B3B5
S113074081E090E002C0880F991F6A95E2F78095D6
S1130750822384BB089521B381E090E002C0880F16
S1130760991F6A95E2F78095822381BB08954423FB
S1130770A1F1813089F028F08230C9F0833011F181
S113078008952BB381E090E002C0880F991F6A9509
S1130790E2F7822B8BBB089528B381E090E002C07E
S11307A0880F991F6A95E2F7822B88BB089525B3B9
S11307B081E090E002C0880F991F6A95E2F7822BCE
S11307C085BB089522B381E090E002C0880F991F91
S11307D06A95E2F7822B82BB0895813091F028F06C
S11307E08230D9F0833029F108952BB381E090E071
S11307F002C0880F991F6A95E2F7809582238BBB0C
S1130800089528B381E090E002C0880F991F6A958B
S1130810E2F78095822388BB089525B381E090E0B8
S113082002C0880F991F6A95E2F78095822385BBE1
S1130830089522B381E090E002C0880F991F6A9561
S1130840E2F78095822382BB08958FB780688FBFBB
S11308500895CF93DF93EC010E9425042BB781E028
S113086090E00A8002C0880F991F0A94E2F7822B55
S11308708BBF8881813049F018F0823089F01AC02A
S113088095B78981892B85BF15C025B79981892F93
S113089090E0880F991F880F991F822B85BF0AC08B
S11308A08981823021F484B78F7B84BF03C084B7ED
S11108B0806484BFDF91CF910895F894FFCF48
S11308BE0A015045444553545241494E0043415256
S11308CE202020202020202020004341525320208D
S10B08DE20202020202000004E
S9030000FC
