:100000000C942A000C9447000C9496010C94470021
:100010000C9447000C9447000C9447000C94470044
:100020000C9447000C9447000C9447000C94470034
:100030000C9447000C9447000C9447000C94470024
:100040000C9447000C9447000C9447000C94470014
:100050000C94470011241FBECFE5D8E0DEBFCDBF12
:1000600010E0A0E6B0E0E4E6F6E002C005900D92F4
:10007000A836B107D9F720E0A8E6B0E001C01D928C
:10008000AA36B207E1F70E9464010C9430030C9485
:100090000000CF93C82F40E063E080E00E948A0216
:1000A00040E062E080E00E948A0288B39C2F929533
:1000B0009F709770887F892B88BBCC2324F488B3EA
:1000C000806188BB03C088B38F7E88BB41E062E05B
:1000D00080E00E948A028FE19EE40197F1F700C060
:1000E000000040E062E080E00E948A0288B39C2F1A
:1000F0009770887F892B88BBC3FF04C088B3806159
:1001000088BB03C088B38F7E88BB41E062E080E09B
:100110000E948A028FE19EE40197F1F700C000007F
:1001200040E062E080E00E948A02CF91089541E0C1
:1001300063E080E00E941A0241E062E080E00E94F9
:100140001A026FEF81E00E940A022FEF89EF90E020
:10015000215080409040E1F700C0000088E20E94FA
:1001600049008FE00E94490081E00E944900089503
:10017000CF93C82F41E063E080E00E948A0240E014
:1001800062E080E00E948A0240E061E080E00E943C
:100190008A0288B39C2F92959F709770887F892BD5
:1001A00088BBCC2324F488B3806188BB03C088B3A8
:1001B0008F7E88BB41E062E080E00E948A028FE18E
:1001C0009EE40197F1F700C0000040E062E080E0AB
:1001D0000E948A0288B39C2F9770887F892B88BBE6
:1001E000C3FF04C088B3806188BB03C088B38F7E1F
:1001F00088BB41E062E080E00E948A028FE19EE4D9
:100200000197F1F700C0000040E062E080E00E944A
:100210008A02CF910895CF93DF93EC0103C021961A
:100220000E94B80088818111FACFDF91CF910895A3
:1002300081E00E944900089541E067E081E00E946A
:100240001A0241E066E080E00E941A0241E064E0A8
:1002500080E00E941A0241E065E080E00E941A02FC
:1002600040E067E081E00E948A0240E066E080E0D2
:100270000E948A0240E064E080E00E948A0240E03E
:1002800065E080E00E948A020895882339F0813079
:1002900051F441E067E00E948A02089540E067E07F
:1002A00081E00E948A020895882341F0813059F448
:1002B00041E065E080E00E948A02089540E065E048
:1002C00080E00E948A020895E0916800F091690040
:1002D00081E08083E0916800F091690082E0818391
:1002E000E0916800F091690087E0828383830E9437
:1002F00097000E94180141E064E080E00E941A0229
:1003000041E065E080E00E941A0241E066E080E0A2
:100310000E941A0241E067E081E00E941A02809187
:100320006800909169000E94FC02FFCF1F920F921B
:100330000FB60F9211242F933F934F935F936F93B8
:100340007F938F939F93AF93BF93EF93FF930E94FD
:1003500018010E941C012FEF82E597E02150804098
:100360009040E1F700C0000080E690E00E940B01A1
:1003700081E00E9445012FEF82E597E02150804007
:100380009040E1F700C0000081E00E9454012FEF8F
:1003900082E597E0215080409040E1F700C00000E6
:1003A0009BB380E189278BBB2FEF82E597E021503B
:1003B00080409040E1F700C000009BB380E28927B5
:1003C0008BBB2FEF82E597E0215080409040E1F712
:1003D00000C000002AB7E0916800F091690081E058
:1003E00090E0038002C0880F991F0A94E2F7822BE5
:1003F0008ABFFF91EF91BF91AF919F918F917F91B4
:100400006F915F914F913F912F910F900FBE0F9081
:100410001F901895813041F028F0823039F08330F8
:1004200039F008956ABB089567BB089564BB0895C9
:1004300061BB08954130A1F5813089F028F0823008
:10044000C9F0833011F108952AB381E090E002C031
:10045000880F991F6A95E2F7822B8ABB089527B30C
:1004600081E090E002C0880F991F6A95E2F7822B25
:1004700087BB089524B381E090E002C0880F991FE4
:100480006A95E2F7822B84BB089521B381E090E066
:1004900002C0880F991F6A95E2F7822B81BB0895ED
:1004A000411137C0813091F028F08230D9F083308B
:1004B00029F108952AB381E090E002C0880F991FC6
:1004C0006A95E2F7809582238ABB089527B381E07D
:1004D00090E002C0880F991F6A95E2F78095822309
:1004E00087BB089524B381E090E002C0880F991F74
:1004F0006A95E2F78095822384BB089521B381E059
:1005000090E002C0880F991F6A95E2F780958223D8
:1005100081BB08954423A1F1813089F028F0823015
:10052000C9F0833011F108952BB381E090E002C04F
:10053000880F991F6A95E2F7822B8BBB089528B329
:1005400081E090E002C0880F991F6A95E2F7822B44
:1005500088BB089525B381E090E002C0880F991F01
:100560006A95E2F7822B85BB089522B381E090E083
:1005700002C0880F991F6A95E2F7822B82BB08950B
:10058000813091F028F08230D9F0833029F108953C
:100590002BB381E090E002C0880F991F6A95E2F7C3
:1005A000809582238BBB089528B381E090E002C040
:1005B000880F991F6A95E2F78095822388BB08957A
:1005C00025B381E090E002C0880F991F6A95E2F799
:1005D0008095822385BB089522B381E090E002C01C
:1005E000880F991F6A95E2F78095822382BB089550
:1005F0008FB780688FBF0895CF93DF93EC010E947F
:10060000F8022BB781E090E00A8002C0880F991FA2
:100610000A94E2F7822B8BBF8881813049F018F071
:10062000823089F01AC095B78981892B85BF15C0A2
:1006300025B79981892F90E0880F991F880F991FFE
:10064000822B85BF0AC08981823021F484B78F7BD9
:1006500084BF03C084B7806484BFDF91CF910895C5
:04066000F894FFCF3C
:08066400616161616161000048
:00000001FF
