S01E0000547261666669635F636F6E74726F6C5F6C69676874732E73726563FD
S11300000C942A000C9447000C94E6000C944700CE
S11300100C9447000C9447000C9447000C94470040
S11300200C9447000C9447000C9447000C94470030
S11300300C9447000C9447000C9447000C94470020
S11300400C9447000C9447000C9447000C94470010
S11300500C94470011241FBECFE5D8E0DEBFCDBF0E
S113006010E0A0E6B0E0E0E7F8E002C005900D92F1
S1130070AE36B107D9F720E0AEE6B0E001C01D927C
S1130080A037B207E1F70E940E030C9436040C94D7
S11300900000CF92DF92EF92FF926B017C0180E02F
S11300A090E00BC0EFE9FFE03197F1F700C00000EA
S11300B020916000222349F00196AC0160E070E0D9
S11300C04C155D056E057F0568F3FF90EF90DF909A
S11300D0CF900895CF93DF93C5E0D0E009C081E0CD
S11300E00E94DF0268EE73E080E090E00E94490025
S11300F02197A9F780E00E94DF02DF91CF91089554
S1130100EC0188818B30F9F08C3071F18A30C9F7B9
S113011081E0809360000E94EE0268E873E180E071
S113012090E00E94490080E00E94EE0280E00E947C
S1130130FE0280916000882319F08BE08883E1CF70
S11301408AE08883DECF81E0809360000E946A00A9
S113015080E00E94FE0288818B3019F48CE0888351
S1130160D0CF8AE08883CDCF81E0809360000E9465
S1130170D00281E00E94FE0268E873E180E090E032
S11301800E94490080E00E94D00280E00E94FE02AA
S11301908AE08883B6CF40E063E083E00E942003D6
S11301A0E0916E00F0916F0081E08083E0916E0039
S11301B0F0916F00818380916E0090916F0027E031
S11301C0FC01228323830E94020408951F920F924C
S11301D00FB60F9211242F933F934F935F936F9316
S11301E07F938F939F93AF93BF93EF93FF938091EC
S11301F061008C3021F18AE08093610080E00E94EC
S1130200EE020E946A000E94A30282E690E00E942D
S1130210960281E00E94FE0281E00E94D0022FEF4C
S113022083E294EF215080409040E1F700C0000049
S113023080E00E94FE0280E00E94D00215C08AE0A5
S1130240809361000E94A30282E690E00E949602DD
S113025081E00E94FE022FEF83E294EF2150804060
S11302609040E1F700C000000E94A30210926000D9
S11302702AB7E0916E00F0916F0081E090E0038076
S113028002C0880F991F0A94E2F7822B8ABFFF915C
S1130290EF91BF91AF919F918F917F916F915F91FA
S11302A04F913F912F910F900FBE0F901F90189573
S11302B0CF93C82F40E063E080E00E9490038FE971
S11302C09FE00197F1F700C00000C4FB442740F908
S11302D060E081E00E949003C5FB442740F961E09F
S11302E081E00E949003C6FB442740F962E081E06C
S11302F00E9490034C2F441F4427441F64E081E074
S11303000E9490038FE99FE00197F1F700C000007D
S113031041E062E080E00E9490038FE99FE0019752
S1130320F1F700C0000040E062E080E00E9490032A
S11303308FE99FE00197F1F700C000004C2F417056
S113034060E081E00E949003C1FB442740F961E032
S113035081E00E949003C2FB442740F962E081E0FF
S11303600E949003C3FB442740F964E081E00E94AB
S113037090038FE99FE00197F1F700C0000041E08E
S113038062E080E00E9490038FE99FE00197F1F71B
S113039000C0000040E062E080E00E9490038FE132
S11303A09EE40197F1F700C00000CF91089541E069
S11303B063E080E00E94200341E062E080E00E946C
S11303C0200341E060E081E00E94200341E061E01D
S11303D081E00E94200341E062E081E00E9420036A
S11303E041E064E081E00E9420038FE99FE00197EF
S11303F0F1F700C0000088E20E9458018FE99FE0F5
S11304000197F1F700C0000081E00E9458018FE9D4
S11304109FE00197F1F700C000008FE00E945801AF
S11304208FE99FE00197F1F700C000000895CF9392
S1130430C82F41E063E080E00E9490038FE99FE0D1
S11304400197F1F700C00000C4FB442740F960E0C5
S113045081E00E949003C5FB442740F961E081E0FC
S11304600E949003C6FB442740F962E081E00E94A9
S113047090034C2F441F4427441F64E081E00E94F2
S113048090038FE99FE00197F1F700C0000041E07D
S113049062E080E00E9490038FE99FE00197F1F70A
S11304A000C0000040E062E080E00E9490038FE919
S11304B09FE00197F1F700C000004C2F417060E00D
S11304C081E00E949003C1FB442740F961E081E090
S11304D00E949003C2FB442740F962E081E00E943D
S11304E09003C3FB442740F964E081E00E94900339
S11304F08FE99FE00197F1F700C0000041E062E05E
S113050080E00E9490038FE99FE00197F1F700C01B
S1130510000040E062E080E00E9490038FE19EE4EE
S11305200197F1F700C00000CF910895CF93DF93B6
S1130530EC0103C021960E94170288818111FACF31
S1130540DF91CF91089581E00E945801089541E020
S113055067E081E00E94200341E066E080E00E94C1
S1130560200341E064E080E00E94200341E065E074
S113057080E00E94200340E067E081E00E94900355
S113058040E066E080E00E94900340E064E080E0A8
S11305900E94900340E065E080E00E94900308958B
S11305A0882339F0813051F441E067E00E949003E0
S11305B0089540E067E081E00E9490030895882355
S11305C039F0813051F49BB380E489278BBB0895C3
S11305D040E066E080E00E9490030895882341F0A3
S11305E0813059F441E064E080E00E949003089572
S11305F040E064E080E00E9490030895882341F085
S1130600813059F441E065E080E00E949003089550
S113061040E065E080E00E94900308950E94A702F4
S11306200E94D7010E94A3028AE0809361000E9485
S1130630CB0081E690E00E94800080E090E0089585
S11306404130A1F5813089F028F08230C9F083303F
S113065011F108952AB381E090E002C0880F991F38
S11306606A95E2F7822B8ABB089527B381E090E074
S113067002C0880F991F6A95E2F7822B87BB089501
S113068024B381E090E002C0880F991F6A95E2F7D5
S1130690822B84BB089521B381E090E002C0880FCF
S11306A0991F6A95E2F7822B81BB0895411137C0E7
S11306B0813091F028F08230D9F0833029F1089507
S11306C02AB381E090E002C0880F991F6A95E2F78F
S11306D0809582238ABB089527B381E090E002C00D
S11306E0880F991F6A95E2F78095822387BB089546
S11306F024B381E090E002C0880F991F6A95E2F765
S11307008095822384BB089521B381E090E002C0E8
S1130710880F991F6A95E2F78095822381BB08951B
S11307204423A1F1813089F028F08230C9F083306C
S113073011F108952BB381E090E002C0880F991F56
S11307406A95E2F7822B8BBB089528B381E090E091
S113075002C0880F991F6A95E2F7822B88BB08951F
S113076025B381E090E002C0880F991F6A95E2F7F3
S1130770822B85BB089522B381E090E002C0880FEC
S1130780991F6A95E2F7822B82BB0895813091F01C
S113079028F08230D9F0833029F108952BB381E019
S11307A090E002C0880F991F6A95E2F78095822332
S11307B08BBB089528B381E090E002C0880F991F95
S11307C06A95E2F78095822388BB089525B381E07A
S11307D090E002C0880F991F6A95E2F78095822302
S11307E085BB089522B381E090E002C0880F991F71
S11307F06A95E2F78095822382BB08958FB780685B
S11308008FBF0895CF93DF93EC010E94FE032BB7B3
S113081081E090E00A8002C0880F991F0A94E2F7F1
S1130820822B8BBF8881813049F018F0823089F0A7
S11308301AC095B78981892B85BF15C025B79981C1
S1130840892F90E0880F991F880F991F822B85BFED
S11308500AC08981823021F484B78F7B84BF03C0AE
S113086084B7806484BFDF91CF910895F894FFCF5B
S1110870010A5045444553545249414E00007C
S9030000FC
