:100000000C942A000C9447000C94EE000C944700CA
:100010000C9447000C9447000C9447000C94470044
:100020000C9447000C9447000C9447000C94470034
:100030000C9447000C9447000C9447000C94470024
:100040000C9447000C9447000C9447000C94470014
:100050000C94470011241FBECFE5D8E0DEBFCDBF12
:1000600010E0A0E6B0E0E8E7F8E002C005900D92ED
:10007000A437B107D9F720E0A4E7B0E001C01D9292
:10008000A637B207E1F70E9414030C943A040C94CB
:100090000000CF92DF92EF92FF926B017C0180E033
:1000A00090E00BC0EFE9FFE03197F1F700C00000EE
:1000B00020916000222349F00196AC0160E070E0DD
:1000C0004C155D056E057F0568F3FF90EF90DF909E
:1000D000CF900895CF93DF93C5E0D0E009C081E0D1
:1000E0000E94E50268EE73E080E090E00E94490023
:1000F0002197A9F780E00E94E502DF91CF91089552
:10010000CF93DF93EC0188818B3031F18C30A9F1F2
:100110008A3009F045C00E94A90282E690E00E9460
:10012000960281E0809360000E94F40268E873E127
:1001300080E090E00E94490080E00E94F40280E0AC
:100140000E94040380916000882319F08BE088836B
:1001500027C08AE0888324C081E0809360000E94E9
:100160006A0080E00E94040388818B3019F48CE0DF
:10017000888316C08AE0888313C081E08093600082
:100180000E94D60268E873E180E090E00E94490096
:1001900080E00E94D60280E00E9404038AE0888307
:1001A000DF91CF91089540E063E083E00E94240353
:1001B000E0917400F091750081E08083E09174001B
:1001C000F09175008183809174009091750027E013
:1001D000FC01228323830E94060408951F920F923C
:1001E0000FB60F9211242F933F934F935F936F930A
:1001F0007F938F939F93AF93BF93EF93FF938091E0
:1002000061008C3021F18AE08093610080E00E94DF
:10021000F4020E946A000E94A90287E690E00E9410
:10022000960281E00E94040381E00E94D6022FEF33
:1002300083E294EF215080409040E1F700C000003D
:1002400080E00E94040380E00E94D6020FC08AE092
:100250008093610081E00E9404032FEF83E294EF1A
:10026000215080409040E1F700C0000010926000F3
:100270002AB7E0917400F091750081E090E003806E
:1002800002C0880F991F0A94E2F7822B8ABFFF9160
:10029000EF91BF91AF919F918F917F916F915F91FE
:1002A0004F913F912F910F900FBE0F901F90189577
:1002B000CF93C82F40E063E080E00E9494038FE971
:1002C0009FE00197F1F700C00000C4FB442740F90C
:1002D00060E081E00E949403C5FB442740F961E09F
:1002E00081E00E949403C6FB442740F962E081E06C
:1002F0000E9494034C2F441F4427441F64E081E074
:100300000E9494038FE99FE00197F1F700C000007D
:1003100041E062E080E00E9494038FE99FE0019752
:10032000F1F700C0000040E062E080E00E9494032A
:100330008FE99FE00197F1F700C000004C2F41705A
:1003400060E081E00E949403C1FB442740F961E032
:1003500081E00E949403C2FB442740F962E081E0FF
:100360000E949403C3FB442740F964E081E00E94AB
:1003700094038FE99FE00197F1F700C0000041E08E
:1003800062E080E00E9494038FE99FE00197F1F71B
:1003900000C0000040E062E080E00E9494038FE132
:1003A0009EE40197F1F700C00000CF91089541E06D
:1003B00063E080E00E94240341E062E080E00E946C
:1003C000240341E060E081E00E94240341E061E019
:1003D00081E00E94240341E062E081E00E94240366
:1003E00041E064E081E00E9424038FE99FE00197EF
:1003F000F1F700C0000088E20E9458018FE99FE0F9
:100400000197F1F700C0000081E00E9458018FE9D8
:100410009FE00197F1F700C000008FE00E945801B3
:100420008FE99FE00197F1F700C000000895CF9396
:10043000C82F41E063E080E00E9494038FE99FE0D1
:100440000197F1F700C00000C4FB442740F960E0C9
:1004500081E00E949403C5FB442740F961E081E0FC
:100460000E949403C6FB442740F962E081E00E94A9
:1004700094034C2F441F4427441F64E081E00E94F2
:1004800094038FE99FE00197F1F700C0000041E07D
:1004900062E080E00E9494038FE99FE00197F1F70A
:1004A00000C0000040E062E080E00E9494038FE919
:1004B0009FE00197F1F700C000004C2F417060E011
:1004C00081E00E949403C1FB442740F961E081E090
:1004D0000E949403C2FB442740F962E081E00E943D
:1004E0009403C3FB442740F964E081E00E94940335
:1004F0008FE99FE00197F1F700C0000041E062E062
:1005000080E00E9494038FE99FE00197F1F700C01B
:10051000000040E062E080E00E9494038FE19EE4EE
:100520000197F1F700C00000CF9108950F931F933A
:10053000CF938C01C0E003C00E941702CF5FF80187
:10054000EC0FF11D80818111F7CFCF911F910F9199
:10055000089581E00E945801089541E067E081E03C
:100560000E94240341E066E080E00E94240341E011
:1005700064E080E00E94240341E065E080E00E94A6
:10058000240340E067E081E00E94940340E066E0DD
:1005900080E00E94940340E064E080E00E949403C5
:1005A00040E065E080E00E9494030895882339F0DC
:1005B000813051F441E067E00E949403089540E0E7
:1005C00067E081E00E9494030895882339F0813028
:1005D00051F49BB380E489278BBB089540E066E02B
:1005E00080E00E9494030895882341F0813059F4FB
:1005F00041E064E080E00E949403089540E064E0FC
:1006000080E00E9494030895882341F0813059F4DA
:1006100041E065E080E00E949403089540E065E0D9
:1006200080E00E94940308950E94AD020E94D701C9
:100630000E94A9028AE0809361000E94D30081E6B3
:1006400090E00E948000FBCF4130A1F5813089F01D
:1006500028F08230C9F0833011F108952AB381E087
:1006600090E002C0880F991F6A95E2F7822B8ABB3F
:10067000089527B381E090E002C0880F991F6A9522
:10068000E2F7822B87BB089524B381E090E002C09B
:10069000880F991F6A95E2F7822B84BB089521B3D6
:1006A00081E090E002C0880F991F6A95E2F7822BE3
:1006B00081BB0895411137C0813091F028F082301C
:1006C000D9F0833029F108952AB381E090E002C087
:1006D000880F991F6A95E2F7809582238ABB089557
:1006E00027B381E090E002C0880F991F6A95E2F776
:1006F0008095822387BB089524B381E090E002C0F7
:10070000880F991F6A95E2F78095822384BB08952C
:1007100021B381E090E002C0880F991F6A95E2F74B
:100720008095822381BB08954423A1F1813089F013
:1007300028F08230C9F0833011F108952BB381E0A5
:1007400090E002C0880F991F6A95E2F7822B8BBB5D
:10075000089528B381E090E002C0880F991F6A9540
:10076000E2F7822B88BB089525B381E090E002C0B8
:10077000880F991F6A95E2F7822B85BB089522B3F3
:1007800081E090E002C0880F991F6A95E2F7822B02
:1007900082BB0895813091F028F08230D9F0833007
:1007A00029F108952BB381E090E002C0880F991FD2
:1007B0006A95E2F7809582238BBB089528B381E088
:1007C00090E002C0880F991F6A95E2F78095822316
:1007D00088BB089525B381E090E002C0880F991F7F
:1007E0006A95E2F78095822385BB089522B381E064
:1007F00090E002C0880F991F6A95E2F780958223E6
:1008000082BB08958FB780688FBF0895CF93DF9321
:10081000EC010E9402042BB781E090E00A8002C044
:10082000880F991F0A94E2F7822B8BBF8881813051
:1008300049F018F0823089F01AC095B78981892B68
:1008400085BF15C025B79981892F90E0880F991F22
:10085000880F991F822B85BF0AC08981823021F4BD
:1008600084B78F7B84BF03C084B7806484BFDF916B
:08087000CF910895F894FFCF29
:10087800010A09434152000950454445535452491D
:04088800414E0000DD
:00000001FF
